:020000040800F2
:10000000280500209D010008C9040008A703000876
:10001000C504000821020008930C0008000000003D
:10002000000000000000000000000000BD06000805
:10003000250200080000000093050008A907000839
:10004000B7010008B7010008B7010008B7010008B0
:10005000B7010008B7010008B7010008B7010008A0
:10006000B7010008B7010008B7010008B701000890
:10007000B7010008B7010008B7010008B701000880
:10008000B7010008B7010008B7010008B701000870
:10009000B7010008B7010008B7010008B701000860
:1000A000B7010008B7010008B7010008B701000850
:1000B00005090008B7010008B7010008B7010008EA
:1000C000B7010008B7010008B7010008B701000830
:1000D000B7010008B7010008790A0008B701000855
:1000E000B7010008B7010008B7010008B701000810
:1000F000B7010008B7010008B7010008B701000800
:10010000B7010008B7010008B7010008B7010008EF
:10011000B7010008B7010008B7010008B7010008DF
:10012000B7010008B7010008B7010008B7010008CF
:10013000B7010008B7010008B7010008B7010008BF
:10014000B7010008B7010008B7010008B7010008AF
:10015000B7010008B7010008B7010008B70100089F
:10016000B7010008B7010008B7010008B70100088F
:10017000B7010008B7010008B7010008B70100087F
:10018000B7010008B7010008DFF80CD000F018F83C
:1001900000480047B50C00082805002006488047A5
:1001A00006480047FEE7FEE7FEE7FEE7FEE7FEE75C
:1001B000FEE7FEE7FEE7FEE7C10700088901000849
:1001C000064C074D06E0E06840F0010394E80700A4
:1001D00098471034AC42F6D3FFF7DAFF940D0008CD
:1001E000B40D00081FB50C4800900020ADF80400C5
:1001F0004BF6FF70ADF806000020ADF808004FF494
:100200008060ADF80A000001ADF80C0069460348B3
:1002100000F0CCF81FBD0000A08601000054004093
:1002200000BFFEE7704700000349086000BF0249B5
:1002300009680029FBD170471C00002000B5024668
:10024000002300BF03E00A20FFF7EEFF5B1C934290
:10025000F9DB00BD1CB50C20009002208DF80400D5
:1002600000208DF8060001208DF8070003208DF88E
:1002700005006946144800F02BF8072202211248B5
:1002800000F06EF8072203210F4800F069F8C02043
:10029000009002208DF8040001208DF806008DF8F2
:1002A000070002208DF805006946084800F010F8A4
:1002B00004220621054800F053F8042207210348D0
:1002C00000F04EF81CBD0000000002400004024097
:1002D000F0B50A4600210023002400BF3DE00125BF
:1002E00005FA01F3156805EA03049C4234D1056858
:1002F0004F000326BE40B543056015794E00B5405A
:100300000668354305601579012D02D01579022D57
:1003100016D185684F000326BE40B54385605579E8
:100320004E00B540866835438560456801268E409D
:10033000B5434560456896798E40B6B23543456011
:10034000C5684F000326BE40B543C560D5794E0051
:10035000B540C6683543C560491C1029BFD3F0BD00
:10036000F0B5002300244D07ED0E02FA05F3CE1080
:1003700000F1200555F826504E07F70E0F26BE4017
:10038000B543CF1000F1200646F82750CE1000F1FB
:10039000200555F8265045EA0304CE1000F120054B
:1003A00045F82640F0BD00BFFEE700002DE9FF47FD
:1003B00004460D460026B1460427DFF8CC80A68807
:1003C0004FF6C0700640684600F004F9DDF808807A
:1003D0002E48B8FBF0F01FFA80F946EA0906A6801D
:1003E00020884FF6FE7108402080002628492868A2
:1003F00088420CD828684000B8FBF0F087B2042F80
:1004000000DA04273E4309F10100208427E0E88850
:100410004BF6FF71884206D1286800EB4000B8FB1C
:10042000F0F087B209E0286800EBC00101EB001092
:10043000B8FBF0F087B247F48047C7F30B0008B968
:1004400047F0010747F4004006434FF4967009FB5C
:1004500000F04FF47A7190FBF1F0401C2084A683E9
:10046000208840F00100208026884FF6F5300640B5
:10047000A8886989084306432680A88929890843F2
:100480002081BDE8FF87000000127A0040420F0083
:10049000A08601000A49096801F0010171B108490B
:1004A0008039096801F0010141B100BF4FF060419E
:1004B00009680029FAD04FF06042107070470000C0
:1004C000800E00E000BFFEE7704708B526208DF8DB
:1004D000000003208DF8010000208DF802000120AB
:1004E0008DF80300684600F00FF81C208DF800001E
:1004F00000208DF801008DF8020001208DF8030026
:10050000684600F001F808BD70B5002100230F22F5
:10051000C4781CB3174C246804F4E064C4F5E064A8
:10052000C4F30721C1F10404E3B20A4144789C40BA
:10053000E1B28478144021430C07210E0E4C05785B
:100540006155047804F01F050124AC4005786D1155
:10055000AD0005F1E025C5F8004109E0047804F09C
:100560001F050124AC40054D0678761145F826405C
:1005700070BD00000CED00E000E400E080E100E070
:1005800000B500F079F910B14FF0FF3000BD002048
:10059000FCE7704729B1064A12680243044B1A600F
:1005A00004E0034A12688243014B1A60704700005E
:1005B0003038024029B1064A12680243044B1A60DF
:1005C00004E0034A12688243014B1A60704700003E
:1005D00040380240F0B50021002200240225002608
:1005E0000223324F3F6807F00C0121B1042905D0E6
:1005F000082937D105E02E4F076036E02D4F076000
:1006000033E02A4F3F1F3F68C7F38056274F3F1FF5
:100610003F6807F03F036EB1264FB7FBF3F7DFF8F3
:100620008CC0ACF1040CDCF800C0CCF3881C07FBD8
:100630000CF40CE01E4FB7FBF3F7DFF870C0ACF121
:10064000040CDCF800C0CCF3881C07FB0CF4174F3B
:100650003F1F3F68C7F301477F1C7D00B4FBF5F7E0
:10066000076002E0124F076000BF00BF0F4F3F68F6
:1006700007F0F0010909104F7A5C0768D74047601E
:100680000A4F3F6807F4E051890A0B4F7A5C4768CC
:10069000D7408760054F3F6807F46041490B064F1C
:1006A0007A5C4768D740C760F0BD00000838024058
:1006B0000024F40000127A0024000020704700009B
:1006C0000CB50020019000903348006840F4803061
:1006D0003149086000BF3048006800F400300090E5
:1006E0000198401C0190009818B90198B0F5A04FEE
:1006F000F1D12948006800F4003010B101200090C9
:1007000001E0002000900098012844D122484030A8
:10071000006840F080502049403108601F48006860
:1007200040F440401D4908601B480830006840F014
:1007300090001949083108600846006808600846BA
:10074000006808601648091F0860081F006840F02C
:100750008070091F086000BF0F48006800F000703B
:100760000028F9D04FF4C0600E4908600A480830EC
:10077000006820F003000849083108600846006856
:1007800040F00200086000BF03480830006800F035
:100790000C000828F8D10CBD003802400070004061
:1007A00004304208003C02400448006820B103487D
:1007B0000068401E01490860704700001C000020CE
:1007C00010B51548006840F47000134908601348DC
:1007D000006840F001001149086000200F4908310D
:1007E00008600E4800680E4908400C4908600D4832
:1007F000091D0860081F006820F48020091F086098
:10080000002006490C310860FFF75AFF4FF00060E6
:1008100001498039086010BD88ED00E000380240D1
:10082000FFFFF6FE103000240346044840F8213054
:10083000034840F8212000207047000034000020C9
:10084000D400002010B5002408E0094951F8240024
:1008500080470848064941F82400641C044850F8C1
:10086000240004498842F0D100F024F8002010BD93
:1008700084000020B1080008002100BF0CE00848F7
:10088000084A42F82100084A42F821004FF0FF30A0
:10089000064A42F82100491C1329F0DB002070476A
:1008A000B10800083400002084000020D40000209B
:1008B0000020704710B50021002200BF16E00D484F
:1008C00050F82100401C80B10A4850F821000A4B22
:1008D0001B6893FBF0F400FB143030B9074850F864
:1008E0002100074B43F82200521C491C1329E6DB68
:1008F000002010BDD4000020200000203400002083
:100900008400002010B50121880700F038F808B3F2
:100910001149096801F130001049096801F001012D
:1009200071B10E498039096801F0010141B100BF80
:100930004FF0604109680029FAD04FF06042107012
:1009400000BF05480068401C034908600121880772
:1009500000F006F810BD000020000020800E00E02E
:10096000CA430282704721B1028842F0010202802C
:1009700004E002884FF6FE731A400280704730B5DB
:100980000246002000230024158A05EA0103958908
:1009900005EA010413B10CB1012000E0002030BDD4
:1009A0001AB183890B43838102E083898B4383815E
:1009B0007047000000220288184B98420ED0184B56
:1009C00098420BD0B0F1804F08D0164B984205D01A
:1009D000154B984202D0154B984204D14FF68F73B5
:1009E0001A404B881A43124B984207D0114B984239
:1009F00004D04FF6FF431A400B891A4302804B681C
:100A0000C3620B880385054B984202D0044B984281
:100A100001D18B7A03860123838270470000014055
:100A2000000401400004004000080040000C0040A9
:100A300000100040001400400EB540F2DC50ADF84C
:100A400000000020ADF8020042F20F70019000207B
:100A5000ADF808008DF80A0069464FF08040FFF7B6
:100A6000A9FF012211469007FFF79AFF012188078D
:100A7000FFF779FF0EBD000010B540F22551074881
:100A800000F048F840B1054800F0FEF8044908605D
:100A90002021024800F006F810BD0000004400408C
:100AA0000000002001F40072B2F5007F00D100BF09
:100AB000CA430280704721B1828942F40052828188
:100AC00004E082894DF6FF731A408281704700006E
:100AD0001FB54FF4165000900020ADF80400ADF89B
:100AE0000600ADF808000C20ADF80A000020ADF8B3
:100AF0000C006946064800F05DF8012240F22551DD
:100B0000034800F031F801210148FFF7D4FF1FBD71
:100B10000044004070B50246002400230025002058
:100B200040F66A16B14200D100BFC1F3421501F090
:100B30001F03012606FA03F3012D02D196893340E3
:100B400006E0022D02D1168A334001E0968A334036
:100B50000C12012606FA04F41688344013B10CB1C5
:100B6000012000E0002070BDF0B5034600240026FF
:100B70000025002040F66A17B94200D100BF184690
:100B8000C1F3421401F01F06012707FA06F5012CF4
:100B900001D10C3004E0022C01D1103000E01430FF
:100BA0001AB107682F43076002E00768AF43076088
:100BB000F0BD00002DE9FF4705460E460024A14682
:100BC00000BFA046B08900B100BF2C8A24F4405475
:100BD000F08804432C82AC8941F20C608443B088D5
:100BE00031890843718908430443AC81AC8A24F4F9
:100BF0004074B0890443AC826846FFF7EBFC2048A0
:100C0000854202D01F48854202D1DDF80C9001E0F8
:100C1000DDF80890A88900F4004040B109EBC90054
:100C200000EB091031684900B0FBF1F707E009EB70
:100C3000C90000EB091031688900B0FBF1F76420AE
:100C4000B7FBF0F004012009642101FB1078A889AA
:100C500000F4004040B1322000EBC800B0FBF1F0DE
:100C600000F00700044308E0322000EB0810642184
:100C7000B0FBF1F000F00F0004432C81BDE8FF87CA
:100C8000001001400014014001468888C0F30800AC
:100C9000704700BFFEE702E008C8121F08C1002A23
:100CA000FAD170477047002001E001C1121F002AED
:100CB000FBD17047FFF784FD01210220FFF76AFC9A
:100CC00001210846FFF766FC01214805FFF772FC89
:100CD00001214804FFF76EFC01210846FFF76AFC7A
:100CE000FFF7B8FAFFF7F1FBFFF7F2FEFFF7A4FEFC
:100CF0001D48006842F21072B0FBF2F1481EB0F1DC
:100D0000807F00D31BE0481E4FF0E0225061501757
:100D10000F22002807DA13071D0E144B00F00F04F2
:100D2000241F1D5503E013071C0E114B1C5400BF5C
:100D300000204FF0E02290610720106100BFFFF714
:100D400051FAFFF71DFC142200210A48FFF76CFD41
:100D5000322201210848FFF767FD04E0FFF772FD2A
:100D60006420FFF76BFAF9E70800002018ED00E0B7
:100D700000E400E07D0D0008890D000810B5612039
:100D8000FFF788FB002010BD10B56220FFF782FB43
:100D9000002010BDB40D0008000000203400000049
:100DA000960C0008E80D000834000020F404000050
:100DB000A60C000800000000000000000024F40061
:100DC00000000000000000000102030406070809FB
:100DD0000000000000000000000000000102030409
:080DE0000102030406070809E3
:040000050800018965
:00000001FF
